{
  "contractName": "putYourMoney",
  "abi": [
    {
      "constant": true,
      "inputs": [
        {
          "name": "",
          "type": "address"
        }
      ],
      "name": "balances",
      "outputs": [
        {
          "name": "",
          "type": "uint256"
        }
      ],
      "payable": false,
      "stateMutability": "view",
      "type": "function"
    },
    {
      "constant": false,
      "inputs": [],
      "name": "renounceOwnership",
      "outputs": [],
      "payable": false,
      "stateMutability": "nonpayable",
      "type": "function"
    },
    {
      "constant": true,
      "inputs": [],
      "name": "owner",
      "outputs": [
        {
          "name": "",
          "type": "address"
        }
      ],
      "payable": false,
      "stateMutability": "view",
      "type": "function"
    },
    {
      "constant": false,
      "inputs": [
        {
          "name": "_newOwner",
          "type": "address"
        }
      ],
      "name": "transferOwnership",
      "outputs": [],
      "payable": false,
      "stateMutability": "nonpayable",
      "type": "function"
    },
    {
      "inputs": [],
      "payable": false,
      "stateMutability": "nonpayable",
      "type": "constructor"
    },
    {
      "anonymous": false,
      "inputs": [
        {
          "indexed": false,
          "name": "owner",
          "type": "address"
        },
        {
          "indexed": false,
          "name": "clientId",
          "type": "uint256"
        },
        {
          "indexed": false,
          "name": "fName",
          "type": "string"
        },
        {
          "indexed": false,
          "name": "lName",
          "type": "string"
        },
        {
          "indexed": false,
          "name": "email",
          "type": "string"
        },
        {
          "indexed": false,
          "name": "company",
          "type": "string"
        },
        {
          "indexed": false,
          "name": "mobile",
          "type": "uint256"
        },
        {
          "indexed": false,
          "name": "creationTime",
          "type": "uint256"
        },
        {
          "indexed": false,
          "name": "step2valid",
          "type": "uint8"
        },
        {
          "indexed": false,
          "name": "step3valid",
          "type": "uint8"
        }
      ],
      "name": "addedClient",
      "type": "event"
    },
    {
      "anonymous": false,
      "inputs": [
        {
          "indexed": true,
          "name": "previousOwner",
          "type": "address"
        }
      ],
      "name": "OwnershipRenounced",
      "type": "event"
    },
    {
      "anonymous": false,
      "inputs": [
        {
          "indexed": true,
          "name": "previousOwner",
          "type": "address"
        },
        {
          "indexed": true,
          "name": "newOwner",
          "type": "address"
        }
      ],
      "name": "OwnershipTransferred",
      "type": "event"
    },
    {
      "constant": false,
      "inputs": [
        {
          "name": "_fName",
          "type": "string"
        },
        {
          "name": "_lName",
          "type": "string"
        },
        {
          "name": "_email",
          "type": "string"
        },
        {
          "name": "_company",
          "type": "string"
        },
        {
          "name": "_mobile",
          "type": "uint256"
        },
        {
          "name": "_creationTime",
          "type": "uint256"
        },
        {
          "name": "_step2valid",
          "type": "uint8"
        },
        {
          "name": "_step3valid",
          "type": "uint8"
        }
      ],
      "name": "addClient",
      "outputs": [],
      "payable": true,
      "stateMutability": "payable",
      "type": "function"
    },
    {
      "constant": true,
      "inputs": [],
      "name": "countNoClients",
      "outputs": [
        {
          "name": "",
          "type": "uint256"
        }
      ],
      "payable": false,
      "stateMutability": "view",
      "type": "function"
    },
    {
      "constant": true,
      "inputs": [],
      "name": "getOwnerClientDetails",
      "outputs": [
        {
          "name": "",
          "type": "string"
        },
        {
          "name": "",
          "type": "string"
        },
        {
          "name": "",
          "type": "string"
        },
        {
          "name": "",
          "type": "string"
        },
        {
          "name": "",
          "type": "uint256"
        },
        {
          "name": "",
          "type": "uint256"
        },
        {
          "name": "",
          "type": "uint256"
        },
        {
          "name": "",
          "type": "uint256"
        }
      ],
      "payable": false,
      "stateMutability": "view",
      "type": "function"
    },
    {
      "constant": true,
      "inputs": [],
      "name": "getContractBalance",
      "outputs": [
        {
          "name": "",
          "type": "uint256"
        }
      ],
      "payable": false,
      "stateMutability": "view",
      "type": "function"
    },
    {
      "constant": false,
      "inputs": [
        {
          "name": "_step1",
          "type": "uint256"
        },
        {
          "name": "_step2",
          "type": "uint256"
        },
        {
          "name": "_step3",
          "type": "uint256"
        }
      ],
      "name": "setAllSteps",
      "outputs": [],
      "payable": false,
      "stateMutability": "nonpayable",
      "type": "function"
    },
    {
      "constant": false,
      "inputs": [
        {
          "name": "_step1",
          "type": "uint256"
        }
      ],
      "name": "setValueStep1",
      "outputs": [],
      "payable": false,
      "stateMutability": "nonpayable",
      "type": "function"
    },
    {
      "constant": false,
      "inputs": [
        {
          "name": "_step2",
          "type": "uint256"
        }
      ],
      "name": "setValueStep2",
      "outputs": [],
      "payable": false,
      "stateMutability": "nonpayable",
      "type": "function"
    },
    {
      "constant": false,
      "inputs": [
        {
          "name": "_step3",
          "type": "uint256"
        }
      ],
      "name": "setValueStep3",
      "outputs": [],
      "payable": false,
      "stateMutability": "nonpayable",
      "type": "function"
    },
    {
      "constant": true,
      "inputs": [],
      "name": "getAllSteps",
      "outputs": [
        {
          "name": "",
          "type": "uint256"
        },
        {
          "name": "",
          "type": "uint256"
        },
        {
          "name": "",
          "type": "uint256"
        }
      ],
      "payable": false,
      "stateMutability": "view",
      "type": "function"
    },
    {
      "constant": false,
      "inputs": [
        {
          "name": "to",
          "type": "address"
        }
      ],
      "name": "transferStep2",
      "outputs": [
        {
          "name": "",
          "type": "bool"
        }
      ],
      "payable": false,
      "stateMutability": "nonpayable",
      "type": "function"
    },
    {
      "constant": false,
      "inputs": [
        {
          "name": "to",
          "type": "address"
        }
      ],
      "name": "transferStep3",
      "outputs": [
        {
          "name": "",
          "type": "bool"
        }
      ],
      "payable": false,
      "stateMutability": "nonpayable",
      "type": "function"
    },
    {
      "constant": false,
      "inputs": [],
      "name": "safeWithdrawEther",
      "outputs": [],
      "payable": false,
      "stateMutability": "nonpayable",
      "type": "function"
    },
    {
      "constant": false,
      "inputs": [],
      "name": "kill",
      "outputs": [],
      "payable": false,
      "stateMutability": "nonpayable",
      "type": "function"
    }
  ],
  "bytecode": "0x6080604052670de0b6b3a76400006003556706f05b59d3b200006004556706f05b59d3b2000060055534801561003457600080fd5b50336000806101000a81548173ffffffffffffffffffffffffffffffffffffffff021916908373ffffffffffffffffffffffffffffffffffffffff160217905550336000806101000a81548173ffffffffffffffffffffffffffffffffffffffff021916908373ffffffffffffffffffffffffffffffffffffffff160217905550611bf5806100c46000396000f3006080604052600436106100f1576000357c0100000000000000000000000000000000000000000000000000000000900463ffffffff16806305e437b5146100f657806313c58cbb1461013757806327e235e31461016257806341c0e1b5146101b95780636f9fb98a146101d0578063711caf40146101fb578063715018a614610256578063765b8dee1461026d57806381c385b5146102c857806381eb3e01146102df5780638da5cb5b1461030c5780639196e48114610363578063be3ee9351461039c578063de51f57e146104f8578063e4a2a8af14610525578063f2fde38b14610715578063fa461f3314610758575b600080fd5b34801561010257600080fd5b50610135600480360381019080803590602001909291908035906020019092919080359060200190929190505050610785565b005b34801561014357600080fd5b5061014c6107fa565b6040518082815260200191505060405180910390f35b34801561016e57600080fd5b506101a3600480360381019080803573ffffffffffffffffffffffffffffffffffffffff169060200190929190505050610807565b6040518082815260200191505060405180910390f35b3480156101c557600080fd5b506101ce61081f565b005b3480156101dc57600080fd5b506101e561090b565b6040518082815260200191505060405180910390f35b34801561020757600080fd5b5061023c600480360381019080803573ffffffffffffffffffffffffffffffffffffffff16906020019092919050505061092a565b604051808215151515815260200191505060405180910390f35b34801561026257600080fd5b5061026b610b5f565b005b34801561027957600080fd5b506102ae600480360381019080803573ffffffffffffffffffffffffffffffffffffffff169060200190929190505050610c61565b604051808215151515815260200191505060405180910390f35b3480156102d457600080fd5b506102dd610e96565b005b3480156102eb57600080fd5b5061030a60048036038101908080359060200190929190505050610f72565b005b34801561031857600080fd5b50610321610fd7565b604051808273ffffffffffffffffffffffffffffffffffffffff1673ffffffffffffffffffffffffffffffffffffffff16815260200191505060405180910390f35b34801561036f57600080fd5b50610378610ffc565b60405180848152602001838152602001828152602001935050505060405180910390f35b6104f6600480360381019080803590602001908201803590602001908080601f0160208091040260200160405190810160405280939291908181526020018383808284378201915050505050509192919290803590602001908201803590602001908080601f0160208091040260200160405190810160405280939291908181526020018383808284378201915050505050509192919290803590602001908201803590602001908080601f0160208091040260200160405190810160405280939291908181526020018383808284378201915050505050509192919290803590602001908201803590602001908080601f01602080910402602001604051908101604052809392919081815260200183838082843782019150505050505091929192908035906020019092919080359060200190929190803560ff169060200190929190803560ff169060200190929190505050611015565b005b34801561050457600080fd5b50610523600480360381019080803590602001909291905050506114aa565b005b34801561053157600080fd5b5061053a61150f565b604051808060200180602001806020018060200189815260200188815260200187815260200186815260200185810385528d818151815260200191508051906020019080838360005b8381101561059e578082015181840152602081019050610583565b50505050905090810190601f1680156105cb5780820380516001836020036101000a031916815260200191505b5085810384528c818151815260200191508051906020019080838360005b838110156106045780820151818401526020810190506105e9565b50505050905090810190601f1680156106315780820380516001836020036101000a031916815260200191505b5085810383528b818151815260200191508051906020019080838360005b8381101561066a57808201518184015260208101905061064f565b50505050905090810190601f1680156106975780820380516001836020036101000a031916815260200191505b5085810382528a818151815260200191508051906020019080838360005b838110156106d05780820151818401526020810190506106b5565b50505050905090810190601f1680156106fd5780820380516001836020036101000a031916815260200191505b509c5050505050505050505050505060405180910390f35b34801561072157600080fd5b50610756600480360381019080803573ffffffffffffffffffffffffffffffffffffffff169060200190929190505050611929565b005b34801561076457600080fd5b5061078360048036038101908080359060200190929190505050611990565b005b6000809054906101000a900473ffffffffffffffffffffffffffffffffffffffff1673ffffffffffffffffffffffffffffffffffffffff163373ffffffffffffffffffffffffffffffffffffffff161415156107e057600080fd5b826003819055508160048190555080600581905550505050565b6000600180549050905090565b60066020528060005260406000206000915090505481565b6000809054906101000a900473ffffffffffffffffffffffffffffffffffffffff1673ffffffffffffffffffffffffffffffffffffffff163373ffffffffffffffffffffffffffffffffffffffff1614151561087a57600080fd5b6000809054906101000a900473ffffffffffffffffffffffffffffffffffffffff1673ffffffffffffffffffffffffffffffffffffffff163373ffffffffffffffffffffffffffffffffffffffff161415610909576000809054906101000a900473ffffffffffffffffffffffffffffffffffffffff1673ffffffffffffffffffffffffffffffffffffffff16ff5b565b60003073ffffffffffffffffffffffffffffffffffffffff1631905090565b600080600260003373ffffffffffffffffffffffffffffffffffffffff1673ffffffffffffffffffffffffffffffffffffffff1681526020019081526020016000205490506001806001830381548110151561098257fe5b906000526020600020906007020160060160019054906101000a900460ff1660ff161415156109b057600080fd5b62093a8060018083038154811015156109c557fe5b90600052602060002090600702016005015401635ba64d05101515156109ea57600080fd5b600554600660003373ffffffffffffffffffffffffffffffffffffffff1673ffffffffffffffffffffffffffffffffffffffff16815260200190815260200160002054111515610a3957600080fd5b610a8d600554600660003373ffffffffffffffffffffffffffffffffffffffff1673ffffffffffffffffffffffffffffffffffffffff168152602001908152602001600020546119f590919063ffffffff16565b600660003373ffffffffffffffffffffffffffffffffffffffff1673ffffffffffffffffffffffffffffffffffffffff168152602001908152602001600020819055508273ffffffffffffffffffffffffffffffffffffffff166108fc6005549081150290604051600060405180830381858888f19350505050158015610b18573d6000803e3d6000fd5b5060026001808303815481101515610b2c57fe5b906000526020600020906007020160060160016101000a81548160ff021916908360ff1602179055506001915050919050565b6000809054906101000a900473ffffffffffffffffffffffffffffffffffffffff1673ffffffffffffffffffffffffffffffffffffffff163373ffffffffffffffffffffffffffffffffffffffff16141515610bba57600080fd5b6000809054906101000a900473ffffffffffffffffffffffffffffffffffffffff1673ffffffffffffffffffffffffffffffffffffffff167ff8df31144d9c2f0f6b59d69b8b98abd5459d07f2742c4df920b25aae33c6482060405160405180910390a260008060006101000a81548173ffffffffffffffffffffffffffffffffffffffff021916908373ffffffffffffffffffffffffffffffffffffffff160217905550565b600080600260003373ffffffffffffffffffffffffffffffffffffffff1673ffffffffffffffffffffffffffffffffffffffff16815260200190815260200160002054905060018060018303815481101515610cb957fe5b906000526020600020906007020160060160009054906101000a900460ff1660ff16141515610ce757600080fd5b620151806001808303815481101515610cfc57fe5b90600052602060002090600702016005015401635b54900510151515610d2157600080fd5b600454600660003373ffffffffffffffffffffffffffffffffffffffff1673ffffffffffffffffffffffffffffffffffffffff16815260200190815260200160002054111515610d7057600080fd5b610dc4600454600660003373ffffffffffffffffffffffffffffffffffffffff1673ffffffffffffffffffffffffffffffffffffffff168152602001908152602001600020546119f590919063ffffffff16565b600660003373ffffffffffffffffffffffffffffffffffffffff1673ffffffffffffffffffffffffffffffffffffffff168152602001908152602001600020819055508273ffffffffffffffffffffffffffffffffffffffff166108fc6004549081150290604051600060405180830381858888f19350505050158015610e4f573d6000803e3d6000fd5b5060026001808303815481101515610e6357fe5b906000526020600020906007020160060160006101000a81548160ff021916908360ff1602179055506001915050919050565b6000809054906101000a900473ffffffffffffffffffffffffffffffffffffffff1673ffffffffffffffffffffffffffffffffffffffff163373ffffffffffffffffffffffffffffffffffffffff16141515610ef157600080fd5b6000809054906101000a900473ffffffffffffffffffffffffffffffffffffffff1673ffffffffffffffffffffffffffffffffffffffff166108fc3073ffffffffffffffffffffffffffffffffffffffff16319081150290604051600060405180830381858888f19350505050158015610f6f573d6000803e3d6000fd5b50565b6000809054906101000a900473ffffffffffffffffffffffffffffffffffffffff1673ffffffffffffffffffffffffffffffffffffffff163373ffffffffffffffffffffffffffffffffffffffff16141515610fcd57600080fd5b8060038190555050565b6000809054906101000a900473ffffffffffffffffffffffffffffffffffffffff1681565b6000806000600354600454600554925092509250909192565b600080670de0b6b3a7640000803414151561102f57600080fd5b42955060019450600193503392506001610100604051908101604052808d81526020018c81526020018b81526020018a81526020018981526020018881526020018760ff1681526020018660ff168152509080600181540180825580915050906001820390600052602060002090600702016000909192909190915060008201518160000190805190602001906110c7929190611b24565b5060208201518160010190805190602001906110e4929190611b24565b506040820151816002019080519060200190611101929190611b24565b50606082015181600301908051906020019061111e929190611b24565b506080820151816004015560a0820151816005015560c08201518160060160006101000a81548160ff021916908360ff16021790555060e08201518160060160016101000a81548160ff021916908360ff1602179055505050915081600260008573ffffffffffffffffffffffffffffffffffffffff1673ffffffffffffffffffffffffffffffffffffffff168152602001908152602001600020819055507fc45e319538ed8814976649b59e41ce47e5d50a57d21dda10df999575dd1180b583838d8d8d8d8d8d8d8d604051808b73ffffffffffffffffffffffffffffffffffffffff1673ffffffffffffffffffffffffffffffffffffffff1681526020018a8152602001806020018060200180602001806020018981526020018881526020018760ff1660ff1681526020018660ff1660ff16815260200185810385528d818151815260200191508051906020019080838360005b83811015611290578082015181840152602081019050611275565b50505050905090810190601f1680156112bd5780820380516001836020036101000a031916815260200191505b5085810384528c818151815260200191508051906020019080838360005b838110156112f65780820151818401526020810190506112db565b50505050905090810190601f1680156113235780820380516001836020036101000a031916815260200191505b5085810383528b818151815260200191508051906020019080838360005b8381101561135c578082015181840152602081019050611341565b50505050905090810190601f1680156113895780820380516001836020036101000a031916815260200191505b5085810382528a818151815260200191508051906020019080838360005b838110156113c25780820151818401526020810190506113a7565b50505050905090810190601f1680156113ef5780820380516001836020036101000a031916815260200191505b509e50505050505050505050505050505060405180910390a161145a34600660003373ffffffffffffffffffffffffffffffffffffffff1673ffffffffffffffffffffffffffffffffffffffff16815260200190815260200160002054611a0e90919063ffffffff16565b600660003373ffffffffffffffffffffffffffffffffffffffff1673ffffffffffffffffffffffffffffffffffffffff168152602001908152602001600020819055505050505050505050505050565b6000809054906101000a900473ffffffffffffffffffffffffffffffffffffffff1673ffffffffffffffffffffffffffffffffffffffff163373ffffffffffffffffffffffffffffffffffffffff1614151561150557600080fd5b8060058190555050565b606080606080600080600080600080339150600260008373ffffffffffffffffffffffffffffffffffffffff1673ffffffffffffffffffffffffffffffffffffffff168152602001908152602001600020549050600180820381548110151561157457fe5b9060005260206000209060070201600001600180830381548110151561159657fe5b906000526020600020906007020160010160018084038154811015156115b857fe5b906000526020600020906007020160020160018085038154811015156115da57fe5b906000526020600020906007020160030160018086038154811015156115fc57fe5b906000526020600020906007020160040154600180870381548110151561161f57fe5b906000526020600020906007020160050154600180880381548110151561164257fe5b906000526020600020906007020160060160009054906101000a900460ff16600180890381548110151561167257fe5b906000526020600020906007020160060160019054906101000a900460ff16878054600181600116156101000203166002900480601f0160208091040260200160405190810160405280929190818152602001828054600181600116156101000203166002900480156117265780601f106116fb57610100808354040283529160200191611726565b820191906000526020600020905b81548152906001019060200180831161170957829003601f168201915b50505050509750868054600181600116156101000203166002900480601f0160208091040260200160405190810160405280929190818152602001828054600181600116156101000203166002900480156117c25780601f10611797576101008083540402835291602001916117c2565b820191906000526020600020905b8154815290600101906020018083116117a557829003601f168201915b50505050509650858054600181600116156101000203166002900480601f01602080910402602001604051908101604052809291908181526020018280546001816001161561010002031660029004801561185e5780601f106118335761010080835404028352916020019161185e565b820191906000526020600020905b81548152906001019060200180831161184157829003601f168201915b50505050509550848054600181600116156101000203166002900480601f0160208091040260200160405190810160405280929190818152602001828054600181600116156101000203166002900480156118fa5780601f106118cf576101008083540402835291602001916118fa565b820191906000526020600020905b8154815290600101906020018083116118dd57829003601f168201915b505050505094508160ff1691508060ff1690509950995099509950995099509950995050509091929394959697565b6000809054906101000a900473ffffffffffffffffffffffffffffffffffffffff1673ffffffffffffffffffffffffffffffffffffffff163373ffffffffffffffffffffffffffffffffffffffff1614151561198457600080fd5b61198d81611a2a565b50565b6000809054906101000a900473ffffffffffffffffffffffffffffffffffffffff1673ffffffffffffffffffffffffffffffffffffffff163373ffffffffffffffffffffffffffffffffffffffff161415156119eb57600080fd5b8060048190555050565b6000828211151515611a0357fe5b818303905092915050565b60008183019050828110151515611a2157fe5b80905092915050565b600073ffffffffffffffffffffffffffffffffffffffff168173ffffffffffffffffffffffffffffffffffffffff1614151515611a6657600080fd5b8073ffffffffffffffffffffffffffffffffffffffff166000809054906101000a900473ffffffffffffffffffffffffffffffffffffffff1673ffffffffffffffffffffffffffffffffffffffff167f8be0079c531659141344cd1fd0a4f28419497f9722a3daafe3b4186f6b6457e060405160405180910390a3806000806101000a81548173ffffffffffffffffffffffffffffffffffffffff021916908373ffffffffffffffffffffffffffffffffffffffff16021790555050565b828054600181600116156101000203166002900490600052602060002090601f016020900481019282601f10611b6557805160ff1916838001178555611b93565b82800160010185558215611b93579182015b82811115611b92578251825591602001919060010190611b77565b5b509050611ba09190611ba4565b5090565b611bc691905b80821115611bc2576000816000905550600101611baa565b5090565b905600a165627a7a7230582076fc4ffaf4baea2492a735ce0c475f29ba14044ac8d02efa22729e852d7bc51e0029",
  "source": "pragma solidity^0.4.24;\r\n\r\n//authors:dcipher.io\r\n//july-2018\r\n//dcipher.io - \"put your money where you mouth is\" - escrow solution\r\n\r\n\r\n/**\r\n * @title Ownable\r\n * @dev The Ownable contract has an owner address, and provides basic authorization control\r\n * functions, this simplifies the implementation of \"user permissions\".\r\n */\r\ncontract Ownable {\r\n  address public owner;\r\n\r\n\r\n  event OwnershipRenounced(address indexed previousOwner);\r\n  event OwnershipTransferred(\r\n    address indexed previousOwner,\r\n    address indexed newOwner\r\n  );\r\n\r\n\r\n  /**\r\n   * @dev The Ownable constructor sets the original `owner` of the contract to the sender\r\n   * account.\r\n   */\r\n  constructor() public {\r\n    owner = msg.sender;\r\n  }\r\n\r\n  /**\r\n   * @dev Throws if called by any account other than the owner.\r\n   */\r\n  modifier onlyOwner() {\r\n    require(msg.sender == owner);\r\n    _;\r\n  }\r\n\r\n  /**\r\n   * @dev Allows the current owner to relinquish control of the contract.\r\n   * @notice Renouncing to ownership will leave the contract without an owner.\r\n   * It will not be possible to call the functions with the `onlyOwner`\r\n   * modifier anymore.\r\n   */\r\n  function renounceOwnership() public onlyOwner {\r\n    emit OwnershipRenounced(owner);\r\n    owner = address(0);\r\n  }\r\n\r\n  /**\r\n   * @dev Allows the current owner to transfer control of the contract to a newOwner.\r\n   * @param _newOwner The address to transfer ownership to.\r\n   */\r\n  function transferOwnership(address _newOwner) public onlyOwner {\r\n    _transferOwnership(_newOwner);\r\n  }\r\n\r\n  /**\r\n   * @dev Transfers control of the contract to a newOwner.\r\n   * @param _newOwner The address to transfer ownership to.\r\n   */\r\n  function _transferOwnership(address _newOwner) internal {\r\n    require(_newOwner != address(0));\r\n    emit OwnershipTransferred(owner, _newOwner);\r\n    owner = _newOwner;\r\n  }\r\n}\r\n\r\n/**\r\n * @title SafeMath\r\n * @dev Math operations with safety checks that throw on error\r\n */\r\nlibrary SafeMath {\r\n  /**\r\n  * @dev Multiplies two numbers, throws on overflow.\r\n  */\r\n  function mul(uint256 a, uint256 b) internal pure returns (uint256 c) {\r\n    // Gas optimization: this is cheaper than asserting 'a' not being zero, but the\r\n    // benefit is lost if 'b' is also tested.\r\n    // See: https://github.com/OpenZeppelin/openzeppelin-solidity/pull/522\r\n    if (a == 0) {\r\n      return 0;\r\n    }\r\n\r\n    c = a * b;\r\n    assert(c / a == b);\r\n    return c;\r\n  }\r\n\r\n  /**\r\n  * @dev Integer division of two numbers, truncating the quotient.\r\n  */\r\n  function div(uint256 a, uint256 b) internal pure returns (uint256) {\r\n    // assert(b > 0); // Solidity automatically throws when dividing by 0\r\n    // uint256 c = a / b;\r\n    // assert(a == b * c + a % b); // There is no case in which this doesn't hold\r\n    return a / b;\r\n  }\r\n\r\n  /**\r\n  * @dev Subtracts two numbers, throws on overflow (i.e. if subtrahend is greater than minuend).\r\n  */\r\n  function sub(uint256 a, uint256 b) internal pure returns (uint256) {\r\n    assert(b <= a);\r\n    return a - b;\r\n  }\r\n\r\n  /**\r\n  * @dev Adds two numbers, throws on overflow.\r\n  */\r\n  function add(uint256 a, uint256 b) internal pure returns (uint256 c) {\r\n    c = a + b;\r\n    assert(c >= a);\r\n    return c;\r\n  }\r\n}  \r\n\r\ncontract putYourMoney is Ownable{\r\n   using SafeMath for uint256;  \r\n   \r\n    // modifier = a check if the value equal to n ether before the function is executed\r\n    modifier fixAmmount(uint value){\r\n        // msg.value should be exactly n ether, else it will throw error\r\n        require(msg.value == value);\r\n            _; //continue to execute the funciton\r\n    }\r\n    \r\n    //client structure, all the clients info\r\n    struct Client{\r\n        string fName;\r\n        string lName;\r\n        string email;\r\n        string company;\r\n        uint   mobile;\r\n        uint   creationTime;\r\n        uint8  step2valid;\r\n        uint8  step3valid;\r\n    }\r\n    \r\n    //store the client structure into clients array\r\n    Client[] clients; \r\n    //specify an address to a client\r\n    mapping (address => uint) clientAddress;\r\n\r\n    //event to get fired when someone add a new client\r\n    event addedClient(address owner, uint clientId, string fName, string lName, string email, string company, uint mobile, uint creationTime, uint8 step2valid, uint8 step3valid);\r\n    \r\n    //add new client into array list\r\n    function addClient(string _fName, string _lName, string _email, string _company, uint _mobile, uint _creationTime, uint8 _step2valid, uint8 _step3valid) public  payable fixAmmount(1000000000000000000){\r\n        _creationTime = now;     //get the current timestamp when a new client register\r\n        _step2valid = 1;         //default value (acting as a false value for step2), if _step2valid = 2 it's acting as true\r\n        _step3valid = 1;        //default value (acting as a false value for step3), if _step3valid = 2 it's acting as true\r\n        address owner = msg.sender;      //set an address for each client\r\n        uint id = clients.push(Client(_fName, _lName, _email, _company,  _mobile, _creationTime, _step2valid, _step3valid));  //set an id and push all the info into it\r\n        clientAddress[owner] = id;       //save in id your client structure\r\n        \r\n        emit addedClient(owner, id, _fName, _lName, _email, _company, _mobile,  _creationTime, _step2valid, _step3valid);   //fire the events to call them in js, without emit is deprecated\r\n        \r\n        //balances[msg.sender] += msg.value;  //balance of each sender(client)\r\n        balances[msg.sender] = balances[msg.sender].add(msg.value);  //balance of each sender(client) using SafeMath\r\n    }\r\n\r\n    /*\r\n    //view clients with all details\r\n    function getClients(uint _id) view returns (string, string, string, string, uint, uint) {\r\n      return (clients[_id].fName,clients[_id].lName,clients[_id].email, clients[_id].company, clients[_id].mobile, clients[_id].creationTime);\r\n        }\r\n    */\r\n    \r\n    //count how many clients are registered\r\n    function countNoClients() view public returns (uint){\r\n        return clients.length;\r\n    }    \r\n        \r\n    \r\n    //just the owner can see his details\r\n    function getOwnerClientDetails() view returns (string, string, string, string, uint, uint, uint, uint)  {\r\n        address owner = msg.sender;\r\n        uint id = clientAddress[owner];\r\n      return (clients[id-1].fName,clients[id-1].lName,clients[id-1].email, clients[id-1].company, clients[id-1].mobile, clients[id-1].creationTime, clients[id-1].step2valid, clients[id-1].step3valid);\r\n        }\r\n    \r\n    //set the owner of the contract  \r\n    constructor () public {\r\n         owner = msg.sender;\r\n        } \r\n    \r\n    //view the balance in contract\r\n    function getContractBalance()  public constant returns(uint){\r\n        return address(this).balance;\r\n    }\r\n    \r\n    \r\n    //Set the default steps fee hardcoded   \r\n        uint step1 = 1000000000000000000 wei;\r\n        uint step2 = 500000000000000000 wei;\r\n        uint step3 = 500000000000000000 wei;\r\n        \r\n    //after deploying the contract, owner can define all the steps fee together\r\n        function setAllSteps(uint _step1, uint _step2, uint _step3) public onlyOwner{\r\n            step1 = _step1;\r\n            step2 = _step2;\r\n            step3 = _step3;\r\n        }\r\n        \r\n    //after deploying the contract, owner can define just the value of step1\r\n        function setValueStep1(uint _step1) public onlyOwner{\r\n            step1 = _step1;\r\n        }\r\n        //after deploying the contract, owner can define just the value of step2\r\n        function setValueStep2(uint _step2) public onlyOwner{\r\n            step2 = _step2;\r\n        }\r\n    //after deploying the contract, owner can define just the value of step3\r\n        function setValueStep3(uint _step3) public onlyOwner{\r\n            step3 = _step3;\r\n        }\r\n        \r\n        \r\n    //view all steps     \r\n    function getAllSteps() public view returns (uint, uint, uint) {\r\n        return (step1,step2,step3);\r\n        }\r\n    \r\n    mapping (address => uint256) public balances;\r\n    //similar to withdraw but ether is sent to specified address, not the caller\r\n    /*\r\n    function transfer(address to, uint value) returns(bool success)  {\r\n        if(balances[msg.sender] < value) throw;\r\n        balances[msg.sender] -= value;\r\n        to.transfer(value);\r\n        return true;\r\n    }\r\n    */\r\n    \r\n    //client transfer his first part, 0.5 eth\r\n    //can transfer them after 1 day\r\n    //can transfer them only once, after that step2valid became 2\r\n    //1532268549,1537625349 are harcoded, replace with now\r\n    //using SafeMath library\r\n    function transferStep2(address to) returns(bool)  {\r\n        uint id = clientAddress[msg.sender];\r\n        require (clients[id-1].step2valid == 1);\r\n        require (1532268549 >= clients[id-1].creationTime + 1 days);\r\n        if(balances[msg.sender] <= step2) throw;\r\n            //balances[msg.sender] -= step2;\r\n            balances[msg.sender] = balances[msg.sender].sub(step2);\r\n            to.transfer(step2);\r\n            clients[id-1].step2valid = 2;\r\n        return true;\r\n    }\r\n    \r\n    //client transfer his second part, 0.5 eth\r\n    //can transfer them after 1 day\r\n    //can transfer them only once, after that step3valid became 2\r\n    //using SafeMath library\r\n    function transferStep3(address to) returns(bool)  {\r\n        uint id = clientAddress[msg.sender];\r\n        require (clients[id-1].step3valid == 1);\r\n        require (1537625349 >= clients[id-1].creationTime + 7 days);\r\n        if (balances[msg.sender] <= step3) throw;\r\n            //balances[msg.sender] -= step3;\r\n            balances[msg.sender] = balances[msg.sender].sub(step3);\r\n            to.transfer(step3);\r\n            clients[id-1].step3valid = 2;\r\n        return true;\r\n    }\r\n\r\n    //safe withdraw the remaining eth from contract if the client don't claim them\r\n    function safeWithdrawEther() external onlyOwner {\r\n    owner.transfer(address(this).balance);\r\n    }\r\n    \r\n    //kill the contract\r\n    function kill() public onlyOwner{\r\n        if(msg.sender == owner)\r\n            selfdestruct(owner);\r\n    }\r\n   \r\n\r\n}",
  "sourcePath": "C:\\Users\\SebastianDirman\\putyourmoney-truffle\\putyourmoney-truffle\\contracts\\putyourmoney.sol",
  "compiler": {
    "name": "solc",
    "version": "0.4.24+commit.e67f0147.Emscripten.clang"
  },
  "schemaVersion": "2.0.1",
  "updatedAt": "2018-07-18T14:38:40.150Z"
}